:020000040800F2
:100000000000032089700008D5700008D570000832
:10001000D5700008D5700008D570000800000000F9
:10002000000000000000000000000000D56700088C
:10003000D57000080000000099680008F168000809
:10004000D5700008D5700008D5700008D57000087C
:10005000D5700008D5700008D5700008D57000086C
:10006000D5700008D5700008D5700008D57000085C
:10007000D5700008D5700008D5700008D57000084C
:10008000D5700008D5700008D5700008D57000083C
:10009000D5700008D5700008D5700008D57000082C
:1000A000D5700008D5700008D5700008D57000081C
:1000B000ED6A0008D5700008D5700008D5700008FA
:1000C000D5700008D5700008D5700008D5700008FC
:1000D000D5700008496F0008D5700008D570000879
:1000E000D5700008D5700008D5700008D5700008DC
:1000F000D5700008D5700008D5700008D5700008CC
:10010000D5700008D5700008D5700008D5700008BB
:10011000D5700008D5700008D5700008D5700008AB
:10012000D5700008D5700008D5700008D57000089B
:10013000D5700008D5700008D5700008D57000088B
:10014000D5700008D5700008D5700008D57000087B
:10015000D5700008D5700008D5700008D57000086B
:10016000D5700008D5700008D5700008D57000085B
:10017000D5700008D5700008D5700008D57000084B
:10018000D5700008D5700008D5700008D57000083B
:10019000D5700008D5700008D5700008D57000082B
:0C01A000856F0008D5700008D5700008BD
:1001B000F46202080000002088090020880900205D
:1001C0000C420120844641EA000313F003036DD181
:1001D000403A41D351F8043B40F8043B51F8043B0A
:1001E00040F8043B51F8043B40F8043B51F8043B11
:1001F00040F8043B51F8043B40F8043B51F8043B01
:1002000040F8043B51F8043B40F8043B51F8043BF0
:1002100040F8043B51F8043B40F8043B51F8043BE0
:1002200040F8043B51F8043B40F8043B51F8043BD0
:1002300040F8043B51F8043B40F8043B51F8043BC0
:1002400040F8043B51F8043B40F8043B51F8043BB0
:1002500040F8043B403ABDD2303211D351F8043B50
:1002600040F8043B51F8043B40F8043B51F8043B90
:1002700040F8043B51F8043B40F8043B103AEDD2FF
:100280000C3205D351F8043B40F8043B043AF9D250
:10029000043208D0D2071CBF11F8013B00F8013B23
:1002A00001D30B8803806046704700BF082A13D330
:1002B0008B078DD010F003038AD0C3F10403D21A48
:1002C000DB071CBF11F8013B00F8013B80D331F87C
:1002D000023B20F8023B7BE7043AD9D3013A11F8FC
:1002E000013B00F8013BF9D20B7803704B78437067
:1002F0008B7883706046704740EA010C1CF0070F52
:1003000023D1BDF1100DCDE90245CDE900676FF0B5
:1003100000064FF0000700BFF0E80223F1E80245B5
:10032000A24282FA46FCA7FA86FC08BFBCF1000F85
:1003300040F0D780AB4283FA46FCA7FA86FC08BFA0
:10034000BCF1000F40F0CA80E6E710F0030C21D0AA
:1003500020F0030050F8042B5FEACC7C08D00FD2C9
:1003600011F801CB5FFA92F3B3EB0C0C10D17BB117
:1003700011F801CB5FFAA2F3B3EB0C0C08D13BB13F
:1003800011F801CB5FFAB2F3B3EB0C0C00D10BB94F
:1003900060467047BDF1100DCDE90245CDE900671B
:1003A0006FF000064FF0000711F0030C2DD110F094
:1003B000040F0DD050F8042B51F8044BA24282FADE
:1003C00046FCA7FA86FC08BFBCF1000F40F089800C
:1003D00011F0040F9FD051F8045B00BFF0E8022336
:1003E000AA4282FA46FCA7FA86FC08BFBCF1000FBD
:1003F00071D1F1E80245A34283FA46FCA7FA86FCD4
:1004000008BFBCF1000F63D1E8E721F00301BCF1A4
:10041000020F1ED03BDA51F8045B00BF50F8043BDA
:100420004FEA152583FA46FCA7FA86FCB7EB0C2F9A
:1004300003EA162208BFAA424DD151F8045BBCF171
:10044000000F82EA03034FEA056208BF93423CD1E2
:10045000E4E751F8045B00BF50F8043B4FEA154550
:1004600083FA46FCA7FA86FCB7EB0C4F03EA164268
:1004700008BFAA422FD151F8045BBCF1000F82EAF9
:1004800003034FEA054208BF93421ED1E4E751F847
:10049000045B00BF50F8043B4FEA156583FA46FC45
:1004A000A7FA86FCB7EB0C6F03EA166208BFAA42F4
:1004B00011D151F8045BBCF1000F82EA03034FEA4B
:1004C000052208BF934200D1E4E719BA12BA0AE044
:1004D00019BA22BA07E011BA2ABA04E019BA2ABA3C
:1004E00001E011BA22BA9CFA8CF0DDE90067DDE97F
:1004F00002451DF1100D38B1B0FA80F0C0F11800BE
:1005000021FA00F122FA00F20120914298BF8041C5
:10051000704700BF81F0004102E000BF83F000435C
:1005200030B54FEA41044FEA430594EA050F08BF8E
:1005300090EA020F1FBF54EA000C55EA020C7FEA52
:10054000645C7FEA655C00F0E2804FEA5454D4EBCF
:100550005555B8BF6D420CDD2C4480EA020281EA99
:10056000030382EA000083EA010180EA020281EAD1
:100570000303362D88BF30BD11F0004F4FEA013123
:100580004FF4801C4CEA113102D0404261EB410132
:1005900013F0004F4FEA03334CEA133302D05242B8
:1005A00063EB430394EA050F00F0A780A4F1010474
:1005B000D5F1200E0DDB02FA0EFC22FA05F28018AE
:1005C00041F1000103FA0EF2801843FA05F3594194
:1005D0000EE0A5F120050EF1200E012A03FA0EFC13
:1005E00028BF4CF0020C43FA05F3C01851EBE3713D
:1005F00001F0004507D54FF0000EDCF1000C7EEB5A
:1006000000006EEB0101B1F5801F1BD3B1F5001F97
:100610000CD349085FEA30004FEA3C0C04F10104B6
:100620004FEA445212F5800F80F09A80BCF1004FDF
:1006300008BF5FEA500C50F1000041EB045141EA61
:10064000050130BD5FEA4C0C404141EB010111F462
:10065000801FA4F10104E9D191F0000F04BF01460D
:100660000020B1FA81F308BF2033A3F10B03B3F1EB
:1006700020020CDA0C3208DD02F1140CC2F10C027B
:1006800001FA0CF021FA02F10CE002F11402D8BFD9
:10069000C2F1200C01FA02F120FA0CFCDCBF41EAA5
:1006A0000C019040E41AA2BF01EB0451294330BD74
:1006B0006FEA04041F3C1CDA0C340EDC04F1140451
:1006C000C4F1200220FA04F001FA02F340EA030028
:1006D00021FA04F345EA030130BDC4F10C04C4F16E
:1006E000200220FA02F001FA04F340EA030029464E
:1006F00030BD21FA04F0294630BD94F0000F83F498
:10070000801306BF81F480110134013D4EE77FEA7A
:10071000645C18BF7FEA655C29D094EA050F08BFC6
:1007200090EA020F05D054EA000C04BF19461046A7
:1007300030BD91EA030F1EBF0021002030BD5FEAEB
:10074000545C05D14000494128BF41F0004130BD13
:1007500014F580043CBF01F5801130BD01F0004567
:1007600045F0FE4141F470014FF0000030BD7FEADA
:10077000645C1ABF194610467FEA655C1CBF0B46D5
:10078000024650EA013406BF52EA033591EA030FEC
:1007900041F4002130BD00BF90F0000F04BF0021E4
:1007A000704730B54FF4806404F132044FF0000517
:1007B0004FF0000150E700BF90F0000F04BF002190
:1007C000704730B54FF4806404F1320410F00045F6
:1007D00048BF40424FF000013EE700BF42004FEAF1
:1007E000E2014FEA31014FEA02701FBF12F07F436E
:1007F00093F07F4F81F06051704792F0000F14BF6B
:1008000093F07F4F704730B54FF4607401F00045AE
:1008100021F0004120E700BF50EA010208BF704705
:1008200030B54FF000050AE050EA010208BF7047FA
:1008300030B511F0004502D5404261EB41014FF463
:10084000806404F132045FEA915C3FF4DCAE4FF067
:1008500003025FEADC0C18BF03325FEADC0C18BF4E
:10086000033202EBDC02C2F1200300FA03FC20FA9F
:1008700002F001FA03FE40EA0E0021FA02F11444EC
:10088000C1E600BF70B54FF0FF0C4CF4E06C1CEA01
:1008900011541DBF1CEA135594EA0C0F95EA0C0F76
:1008A00000F0DEF82C4481EA030621EA4C5123EAE9
:1008B0004C5350EA013518BF52EA033541F4801118
:1008C00043F4801338D0A0FB02CE4FF00005E1FBCB
:1008D00002E506F00042E0FB03E54FF00006E1FB15
:1008E00003569CF0000F18BF4EF0010EA4F1FF0458
:1008F000B6F5007F64F5407404D25FEA4E0E6D4198
:1009000046EB060642EAC62141EA55514FEAC520A8
:1009100040EA5E504FEACE2EB4F1FD0C88BFBCF524
:10092000E06F1ED8BEF1004F08BF5FEA500E50F1D5
:10093000000041EB045170BD06F0004646EA01019B
:1009400040EA020081EA0301B4EB5C04C2BFD4EBCD
:100950000C0541EA045170BD41F480114FF0000EC6
:10096000013C00F3AB8014F1360FDEBF002001F034
:10097000004170BDC4F10004203C35DA0C341BDCAE
:1009800004F11404C4F1200500FA05F320FA04F080
:1009900001FA05F240EA020001F0004221F00041B4
:1009A00010EBD37021FA04F642EB06015EEA430E27
:1009B00008BF20EAD37070BDC4F10C04C4F1200557
:1009C00000FA04F320FA05F001FA04F240EA02000A
:1009D00001F0004110EBD37041F100015EEA430EDB
:1009E00008BF20EAD37070BDC4F1200500FA05F2FB
:1009F0004EEA020E20FA04F301FA05F243EA02037A
:100A000021FA04F001F0004121FA04F220EA020088
:100A100000EBD3705EEA430E08BF20EAD37070BDCE
:100A200094F0000F0FD101F00046400041EB0101AE
:100A300011F4801F08BF013CF7D041EA060195F090
:100A4000000F18BF704703F00046520043EB03034A
:100A500013F4801F08BF013DF7D043EA0603704737
:100A600094EA0C0F0CEA135518BF95EA0C0F0CD042
:100A700050EA410618BF52EA4306D1D181EA030188
:100A800001F000414FF0000070BD50EA410606BF82
:100A90001046194652EA430619D094EA0C0F02D1C7
:100AA00050EA013613D195EA0C0F05D152EA03360C
:100AB0001CBF104619460AD181EA030101F000412A
:100AC00041F0FE4141F470014FF0000070BD41F073
:100AD000FE4141F4780170BD70B54FF0FF0C4CF44D
:100AE000E06C1CEA11541DBF1CEA135594EA0C0F6C
:100AF00095EA0C0F00F0A7F8A4EB050481EA030EB9
:100B000052EA03354FEA013100F088804FEA03339F
:100B10004FF0805545EA131343EA12634FEA02226D
:100B200045EA111545EA10654FEA00260EF000412E
:100B30009D4208BF964244F1FD0404F5407402D280
:100B40005B084FEA3202B61A65EB03055B084FEA11
:100B500032024FF480104FF4002CB6EB020E75EB0E
:100B6000030E22BFB61A754640EA0C005B084FEA36
:100B70003202B6EB020E75EB030E22BFB61A7546B3
:100B800040EA5C005B084FEA3202B6EB020E75EBFE
:100B9000030E22BFB61A754640EA9C005B084FEA76
:100BA0003202B6EB020E75EB030E22BFB61A754683
:100BB00040EADC0055EA060E18D04FEA051545EA72
:100BC00016754FEA06164FEAC30343EA52734FEA1B
:100BD000C2025FEA1C1CC0D111F4801F0BD141EA94
:100BE00000014FF000004FF0004CB6E711F4801FF9
:100BF00004BF01430020B4F1FD0C88BFBCF5E06FD9
:100C00003FF6AFAEB5EB030C04BFB6EB020C5FEAE8
:100C1000500C50F1000041EB045170BD0EF0004E3D
:100C20004EEA113114EB5C04C2BFD4EB0C0541EA6F
:100C3000045170BD41F480114FF0000E013C90E66C
:100C400045EA060E8DE60CEA135594EA0C0F08BF30
:100C500095EA0C0F3FF43BAF94EA0C0F0AD150EA2F
:100C600001347FF434AF95EA0C0F7FF425AF1046C2
:100C700019462CE795EA0C0F06D152EA03353FF4EA
:100C8000FDAE1046194622E750EA410618BF52EA67
:100C900043067FF4C5AE50EA41047FF40DAF52EA3B
:100CA00043057FF4EBAE12E74FF0FF3C06E000BFD8
:100CB0004FF0010C02E000BF4FF0010C4DF804CDE5
:100CC0004FEA410C7FEA6C5C4FEA430C18BF7FEAA5
:100CD0006C5C1BD001B050EA410C0CBF52EA430CD3
:100CE00091EA030F02BF90EA020F0020704710F153
:100CF000000F91EA030F58BF994208BF90422CBFE2
:100D0000D8176FEAE37040F0010070474FEA410CDA
:100D10007FEA6C5C02D150EA013C07D14FEA430CF8
:100D20007FEA6C5CD6D152EA033CD3D05DF8040B69
:100D3000704700BF8446104662468C46194663469B
:100D400000E000BF01B5FFF7B7FF002848BF10F172
:100D5000000F01BD4DF808EDFFF7F4FF0CBF0120B7
:100D600000205DF808FB00BF4DF808EDFFF7EAFF33
:100D700034BF012000205DF808FB00BF4DF808EDEE
:100D8000FFF7E0FF94BF012000205DF808FB00BFE3
:100D90004DF808EDFFF7CEFF94BF012000205DF86D
:100DA00008FB00BF4DF808EDFFF7C4FF34BF01207A
:100DB00000205DF808FB00BF4FEA410212F5001267
:100DC00015D211D56FF47873B3EB625212D94FEA92
:100DD000C12343F0004343EA505311F0004F23FA7C
:100DE00002F018BF404270474FF00000704750EAD1
:100DF000013005D111F0004008BF6FF0004070478E
:100E00004FF00000704700BF4BB942B9002908BF3E
:100E1000002802D04FF0FF31084600F03BB882B006
:100E2000EC462DE9005000F01DF8DDF804E002B0BA
:100E30000CBC70472DE97043069E14461D46804643
:100E4000894600F029F804FB01F300FB0533A4FBFD
:100E500000451D44B8EB040469EB0505C6E90045EF
:100E6000BDE870832DE97043069E1446804689468E
:100E70001D4600F05DF900FB05F504FB0153A0FBE6
:100E800004451D44B8EB040469EB0505C6E90045BB
:100E9000BDE87083704700BF00292DE9F00FC0F254
:100EA0009F800024002BC0F29680154606460F4610
:100EB000002B3ED18A4257D9B2FA82F34BB1C3F12B
:100EC000200201FA03F720FA02F29D40174300FACC
:100ED00003F6290CB7FBF1F2330C01FB127CA8B22C
:100EE00043EA0C4700FB02F3BB4209D97F1902F128
:100EF000FF3C80F00181BB4240F2FE80023A2F4469
:100F0000FF1AB7FBF1F3B6B201FB137146EA0141D8
:100F100000FB03F0884208D9491903F1FF3780F03C
:100F2000ED80884240F2EA80023B43EA024200231D
:100F300003E08B420AD900231A461046194614B121
:100F4000404261EB4101BDE8F00F7047B3FA83F80E
:100F5000B8F1000F40F084808B4202D3824200F24D
:100F6000DE8000230122E8E712B90123B3FBF2F58A
:100F7000B5FA85F2002A39D17F1B280C1FFA85FCAF
:100F80000123B7FBF0F1320C00FB117742EA07476F
:100F90000CFB01F2BA4207D97F1901F1FF3802D2E6
:100FA000BA4200F2C1804146BF1AB7FBF0F2B6B2B6
:100FB00000FB127046EA00400CFB02FC844507D996
:100FC000401902F1FF3702D2844500F2AB803A4665
:100FD00042EA0142B1E7E443524263EB430364E770
:100FE000404261EB41014FF0FF345BE79540C2F1B5
:100FF000200327FA03F1280C26FA03F39740B1FBEC
:10100000F0F81F433B0C00FB18111FFA85FC43EA64
:1010100001410CFB08F38B4206FA02F608D9491984
:1010200008F1FF3279D28B4277D9A8F1020829441E
:10103000C91AB1FBF0F3BFB200FB131147EA014735
:101040000CFB03F2BA4207D97F1903F1FF3160D2DA
:10105000BA425ED9023B2F44BF1A43EA084390E7E5
:10106000C8F1200203FA08FC25FA02F343EA0C0C4B
:101070004FEA1C4921FA02F301FA08F720FA02F2BA
:10108000B3FBF9F1174309FB11333A0C1FFA8CFB40
:1010900042EA03430BFB01FA9A4505FA08F008D926
:1010A00013EB0C0301F1FF3235D29A4533D90239E3
:1010B0006344CAEB0303B3FBF9F209FB1233BFB27B
:1010C00047EA03470BFB02F9B94508D917EB0C07B0
:1010D00002F1FF331BD2B94519D9023A674442EAFB
:1010E0000145A5FB0001C9EB07078F424FF0000344
:1010F0000AD305D02A4620E7624601E73B4614E7BB
:1011000006FA08F68642F5D26A1E002315E71A464B
:10111000E5E70B46A0E71146CBE7904688E7434654
:1011200042460AE7023A53E702392F443CE700BF40
:101130002DE9F00F144605460E46002B43D18A4296
:1011400053D9B2FA82F757B1C7F1200620FA06F652
:1011500001FA07F302FA07F41E4300FA07F5210C1F
:10116000B6FBF1F22B0C01FB1267A0B243EA074673
:1011700000FB02F3B34209D9361902F1FF3780F0C0
:10118000F680B34240F2F380023A2644F61AB6FBE8
:10119000F1F3ADB201FB136145EA014100FB03F03D
:1011A000884208D9091903F1FF3680F0E2808842AD
:1011B00040F2DF80023B43EA024200231046194618
:1011C000BDE8F00F70478B424AD8B3FA83F6002E81
:1011D0004DD18B4202D3824200F2D68000230122FD
:1011E00010461946BDE8F00F704712B90124B4FB50
:1011F000F2F4B4FA84F2002A7CD1091B260CA7B2BF
:101200000123B1FBF6F02A0C06FB101142EA014162
:1012100007FB00F28A4207D9091900F1FF3C02D20C
:101220008A4200F2C3806046891AB1FBF6F2ADB281
:1012300006FB121145EA014507FB02F7AF4208D948
:101240002C1902F1FF3180F09680A74240F2938082
:10125000023A42EA004210461946BDE8F00F7047D4
:1012600000231A4610461946BDE8F00F7047C6F134
:10127000200522FA05F4B3401C434FEA144821FA32
:1012800005F301FA06F720FA05F5B3FBF8FC2F4346
:1012900008FB1C333D0C1FFA84FA45EA03430AFBA2
:1012A0000CF9994502FA06FB04D91B190CF1FF321F
:1012B0006DD39446C9EB0303B3FBF8F508FB153374
:1012C000BFB247EA03470AFB05F8B84504D93F19FE
:1012D00005F1FF3361D31D4645EA0C4CACFB0B23F3
:1012E000C8EB07079F424FF0000549D345D062463F
:1012F0002B4663E79440C2F1200321FA03FC260C3D
:1013000020FA03F301FA02F5BCFBF6F843EA050103
:101310000B0C06FB18CCA7B243EA0C4C07FB08F3F6
:10132000634500FA02F509D91CEB040C08F1FF3201
:101330003AD2634538D9A8F10208A444C3EB0C0C97
:10134000BCFBF6F389B206FB13CC41EA0C4107FB68
:1013500003F28A4207D9091903F1FF3022D28A42E7
:1013600020D9023B2144891A43EA084349E73A4617
:101370000CE733461FE70A466BE7B0409042B6D20F
:101380000CF1FF32002319E73346324616E7994540
:101390008FD9ACF1020C23448CE7B8459BD9023DB0
:1013A000274499E70346DEE79046C7E70238214421
:1013B0003AE700BFF0B583B007F086FB02AD074FF8
:1013C00045F8040D064C002623683B6028464FF480
:1013D0007A71266007F0BAFCF6E700BF8C0C00209B
:1013E000C01000202DE9F04F404CDFF820B1DFF8AD
:1013F00020A1DFF820913E4F3E4E3F4D87B04FF089
:101400000008206869464FF0FF32002306F00AFB0F
:10141000B8F10F0FF5D8DFE808F01E1313131313FC
:10142000131313131313131313089DF800309DF8AF
:101430000D209DF80E10552B12D04FF00008E0E75C
:101440009DF8002006AB434408F1010803F8102C76
:101450005FFA88F8D5E79DF80020AA2AD1D1F1E7F4
:101460009DF809009DF80A30B0EB0208D8F100029F
:1014700052EB08029A42E0D09DF80BE09DF80C2058
:10148000BEEB010CDCF1000151EB0C019142D4D018
:10149000CBF800009DF81000306018489DF812103D
:1014A000C9F800E0DFF870E001601549CEF80020CF
:1014B0009DF813E0C1F800E09DF80FC0CAF80030B5
:1014C000DFF858E09DF811300E480F49C7F800C00A
:1014D0009DF815209DF814C02B609DF81630CEF8AD
:1014E00000C002600B604FF000088AE74C0A002041
:1014F000E0100020E4100020BC100020700A002042
:10150000500A002024000020080000207000002065
:101510000C000020200000206C000020940C002013
:101520002DE9F04F8DB007F0CFFA0CAFC34D47F85F
:10153000040D0697002703972B68DFF838A30127CF
:101540004FF001080797002701973C46032B4746B9
:101550004646B946CDF82480CDF82080CDF81480D9
:10156000CDF80880CDF81080CDF8008071D9042B1B
:1015700000F089815A1E012A09D943B1032B40F09A
:101580008A80AF490A689E46053A012A16D8AD48B6
:1015900010210AF0FFFD834610B9012E00F0F681FC
:1015A000A84810210AF0F6FD012808BF01262B6883
:1015B0009A1E012A40F2BE819E4663B9A24FD7F817
:1015C00000B0BBF1000F40F08D81029F012F00F0B1
:1015D0000482CDF808B0BEF1040F64D0BEF1020F52
:1015E00061D9BEF1030F00F0F181BEF1020F40F2AC
:1015F0008980BEF1030F00F0E2812EF00201012983
:1016000000F0C380BEF1040F00F0F8808F4A631C25
:1016100082FB03E4DA17C2EBA40404EB8404B3EB0B
:10162000440440F04581019F042F00F36981DFF8F5
:1016300020E203940123CEF8003001944FF0FF33F1
:101640000698CAF80030142107F080FB2B68032BA2
:101650008DD87C4840210AF09DFD834618B9B9F128
:10166000010F00F09E81774840210AF093FD012888
:1016700008BF4FF001092B68042B00F00481022BF6
:1016800000F00181032B00F05781012B3FF47FAF65
:10169000002B3FF47CAF9A1E012A40F24B819E46FC
:1016A000BEF1040F9AD1674820210AF073FD8346EA
:1016B00018B9009A012A00F05A81202161480AF0E5
:1016C00069FD0099012808BF012100912B689A1E2D
:1016D000012A05D9002B40F0FF805D4F3A688AB19E
:1016E0009E465C49D1F800C0BCF1000F40F01B8160
:1016F000059F012F00F0BE81BEF1020FCDF814C08E
:101700003FF677AF4F4804210AF044FD834618B9ED
:10171000B8F1010F00F01F814A4804210AF03AFD98
:10172000012808BF4FF001082B689A1E012A09D929
:10173000002B40F0CF80DFF818E1DEF80020002A0F
:101740003FF464AF9E464449D1F800C0BCF1000F9D
:1017500040F0E280089F012F7FF44FAF3F4A40499D
:101760001760404F0868CDF820C04FF0030E614667
:1017700062466346C7F800E005F0BAFED5F800E01F
:101780002EF0020101297FF43DAF37480AF002FD37
:10179000834618B9079F012F00F042813248DFF8D5
:1017A0009CB001210AF0F6FC079F2B68012808BFB6
:1017B0000127032B079740F047812C49D1F800E01F
:1017C000BEF1000F40F0BE80099F012F7FF41EAFD5
:1017D000274A23491760234F0868CDF824E04FF0CB
:1017E000040C714672467346C7F800C005F080FECF
:1017F000DBF800E0BEF1040F7FF408AFDAF8003048
:10180000052B00F0FE80DFF838E0DEF80030052B15
:101810007FF4FCAEDAF80030022B00F03E81062B9C
:1018200000F04E81033B012B3FF6F0AE0C4F002140
:1018300038680C4F4FF0020E1EE000BF900C0020E5
:1018400004000020001002400C000020676666665D
:10185000740A0020200000206C000020D41000201A
:10186000B01000200000002000000240080000200E
:10187000D8100020240000200A460B46C7F800E0DC
:1018800005F036FEC2E6DFF868E2DEF800B0BBF134
:10189000000F2ED1049F012F00F0D880CDF810B09A
:1018A0005A1E012A7FF673AE042B7FF466AE6EE6F5
:1018B0008B49DAF800200B6893423FF4BFAE023B3D
:1018C000022B03D8023A022A7FF6B8AE019F0137F5
:1018D0000197B3E69E4690E69E46BEF1040F3FF4A4
:1018E00011AF82E6029FBBF1010F08BF01270297EB
:1018F00071E6049FBBF1010F08BF01270497CFE7F2
:10190000039F0137092F039723DDDFF8E8E10394F4
:10191000CEF80040019491E6089FBCF1010F08BF8A
:101920000127089769E6059FBCF1010F08BF012751
:1019300005975AE69E4641E6694F3A68062AA2D0C4
:101940009E4621E6099FBEF1010F08BF01270997B6
:101950005CE6019472E6634A634F106803233B60C0
:1019600059465A465B4605F0C3FDD846DCE6DFF82B
:1019700078E15C4F0223CEF80030386859465A4669
:101980005B4605F0B5FDCDF800B09FE6554A564BD5
:1019900010681E6059465A465B4605F0A9FD5E4632
:1019A00005E6DFF840E15049DEF80000C1F800B07C
:1019B0005A4659465B4605F09BFDD9465BE64849C9
:1019C0000B68053B012B3FF6BEAE9BE644490B6816
:1019D000053B012B3FF685AE65E6DFF808E142499D
:1019E000DEF80000DFF810E10F605A4659465B460A
:1019F000CEF8007005F07CFDCDF808B0D5F800E019
:101A0000E9E5384F00213868374F0B460A46C7F8DA
:101A100000E005F06DFD2B68042B3FF4F4AEF5E516
:101A2000DFF8C0E03049DEF8000004230B605A46BE
:101A30005B46594605F05CFD2B68CDF81CB0032BC6
:101A4000DFF8B8B03FF4B9AE9E46DBE5DFF894E0CE
:101A50002549DEF80000DFF8A8E0C1F800B05B46D9
:101A600059465A46CEF8007005F042FDCDF810B048
:101A70002B6815E71D4A1B4917601B4F0868CDF8F6
:101A800014C04FF0020E614662466346C7F800E09C
:101A900005F02EFDD5F800E01FE7124F0021386851
:101AA000114F4FF0010E0B460A46C7F800E005F053
:101AB0001FFDDFF850E0DEF80030062B7FF4B2AEF9
:101AC000084F00213868084F0B464FF0030E0A46B6
:101AD000C7F800E005F00CFDDAF80030A2E600BF20
:101AE00004000020B010002000000020D0100020D2
:101AF00070000020740A0020CC100020900C002000
:101B0000C8100020240000202DE9F04782B006F024
:101B1000DBFF02ACDFF858A044F8040DDFF8549066
:101B2000DFF85480104F114E052506F0CDFF17F059
:101B3000EFFD00210A460B46D9F80000CAF8005014
:101B400005F0D6FCD8F800103B68C1F1080103FB92
:101B500001F10029B8BF03318B10194620463360CC
:101B600007F0F4F8E1E700BF280000201000002093
:101B700000000020B0100020780A00202DE9F04776
:101B8000A548A64DB4B011F07BFC0646A44811F060
:101B900077FC8046A34811F073FC00218246286838
:101BA00011F0C0FFA04B002118684FF0FF320B4628
:101BB00005F038FF9D4B00960FCB02AC07C42F6891
:101BC00024F8023B4FEA134E4FF6FF79384602AB3A
:101BD000CDF80490552184F800E08C2214F06AFCC2
:101BE000934B00960FCB02AF07C72C68CDF804903B
:101BF00020463B80552102AB6E2214F05BFC8D4BDE
:101C00002A68CDF8008093E80300CDF804900C0C0E
:101C10000290ADF80C10104602AB2D2119228DF860
:101C20000E4014F047FC844B84491A6802A817F050
:101C3000B9FD286802AB5A21AA228DE8400214F0AF
:101C400039FC4FF6E07328680093442176220A237A
:101C500012F07EFB7A4B28681C68CDF800A04FF08C
:101C60000008270C02ABCDF8048040216E22ADF8AD
:101C700008408DF80A7014F01DFC4FF47843286872
:101C80000093442194220A2312F062FB6D4B2868D2
:101C90001C68CDF80480270C02AB40218C22CDF8C3
:101CA00000A0ADF808408DF80A7014F003FC1F2363
:101CB000286800933A21B2220A2312F049FB624BB2
:101CC00028681C68CDF80480270C02AB3621AA22B4
:101CD000CDF800A0ADF808408DF80A7014F0EAFBCA
:101CE0004FF48063286800934FF48171B2220A2375
:101CF00012F02EFB554B28681C68ADF80840270CE5
:101D0000534CCDF8048002ABFE21AA22CDF800A0EE
:101D10008DF80A7014F0CEFB0FCC02AF00960FC7FF
:101D200094E80F0007C748F210423B702868019200
:101D300002AB1E21D22214F0BDFB44464FF02A080C
:101D400027B2286800963A46002102ABCDF80490ED
:101D5000ADF80880053414F0ADFB286800963A46CB
:101D6000CDF8049040F23B1102ABADF8088014F0BE
:101D7000A1FBF52CE4D100244FF02A094FF6FF789F
:101D800027B2394628680096002202ABCDF80480BD
:101D9000ADF8089014F08EFB394602AB2868009627
:101DA000CDF80480EB220534ADF8089014F082FBE6
:101DB00040F245139C42DFF864A04FF6FF77DFD175
:101DC000244811F05DFB244B24491A6804461BA8E3
:101DD00017F0E8FC0021DAF8000000941BAB0A467B
:101DE000019714F067FB1E4B1E491A681BA817F0D9
:101DF000D9FCDAF8000000941BAB002101970A22FD
:101E000014F058FB184B1A6801321A6005F016F9E5
:101E100034B0BDE8F08700BF80E00108943F0120A6
:101E20008CE0010898E00108880C0020A4E001087B
:101E3000B4E00108C4E00108AC100020CCE00108C7
:101E4000E4E00108E8E00108ECE00108F0E0010846
:101E5000F4E0010814E101088C0C002024E10108E1
:101E6000740A00202CE10108C010002010B4044CBA
:101E70000460044B0B60822010605DF8044B7047D7
:101E8000880900207C0A002010B4054C0460054B32
:101E90000B604FF4827010605DF8044B704700BF18
:101EA000EC090020980C002030B40648064D074C81
:101EB0000749084A00232B60236003600B6013600E
:101EC00030BC7047D0100020C8100020CC1000207B
:101ED000D4100020D81000202DE9F0412B4C4021D7
:101EE00020460AF057F91021064620460AF052F91A
:101EF0002021074620460AF04DF9042105462046D8
:101F00000AF048F90121044621480AF043F98046C5
:101F1000AA2005F053F8304605F050F8384605F091
:101F20004DF8284605F04AF8204605F047F887EABC
:101F30000600C0B205F042F884EA0500C0B205F020
:101F40003DF8144B187805F039F8134B187805F064
:101F500035F8124B187805F031F8114B187805F068
:101F60002DF8104B187805F029F80F4B187805F06C
:101F700025F80E4B187805F021F8404605F01EF8BC
:101F80005520BDE8F04105F019B800BF001002402F
:101F900000000240B4100020B8100020680A0020A1
:101FA0006C0A0020E8100020840C002004000020AF
:101FB00010B582B006F088FD02AC44F8040DFFF7BE
:101FC0008BFF20460A2106F0C1FEF8E70C4BDA68C9
:101FD000186190420DDB99681A618842D8600ADB6B
:101FE0005A68D9609042986007DB58609A60012077
:101FF000704704207047032070470220704700BFDD
:10200000540A00202DE9F007062849D8DFE800F03F
:102010004B5A2E3A6E7E0400674B1B681BB9674A09
:102020001368042B03D0052900F08180634ADFF890
:10203000B491DFF8B481DFF8B4C1614F614E624DF5
:10204000624C63494FF0FF3300204FF0040AC9F897
:1020500000A0C8F80030CCF800303B6033602B6043
:10206000236008601060BDE8F0077047524B1B68A2
:1020700023B9524A1368033B012BD8D90320BDE88A
:10208000F00770474C4B1B6823B94C4A1368033B5D
:10209000012BCCD9052976D00329EFD9042958D0B2
:1020A000BDE8F0077047002955D001296FD00229FB
:1020B00047D003294BD1464B1A68002AF0DD013A7C
:1020C0001A60EDE73C4B1B68002BAFD0002930D0E5
:1020D00001294FD0022967D003296BD13C4B1A68E4
:1020E000002A67DD013A1A600120BCE7394B1B6802
:1020F000EBB9314B1B68002BBBD0304B1B68042B5A
:10210000BCD1042914BF04200520ACE72A4B1B686E
:1021100023B92A4A1368033B012B88D9012934D0FB
:10212000022920D0032914BF052006209BE70620A2
:1021300099E7294B1B680BB3204B03221A6002203E
:1021400091E7234B1A68032A01DC01321A60002050
:1021500089E7052087E71949204B0120C82208603C
:102160001A6002207FE7154B1B68042B14BF032065
:10217000042078E71A4B1B68002BDDD00F4B04229C
:102180001A6002206FE704206DE702206BE70A4B1C
:10219000186800283FF467AF084C104B0225FA225C
:1021A000084625601A605EE7094B1A68032A01DCBD
:1021B00001321A60012056E7740A0020900C0020BA
:1021C000BC100020500A0020840C0020940C002039
:1021D000AC100020EC100020C810002028000020C7
:1021E000CC10002074000020680A0020E8100020B5
:1021F00003461821002201391A605A609A60DA6099
:102200001A615A619A61DA611A625A629A62DA62F2
:1022100003F13003EFD10B464FF0FF32C118C2502B
:102220003033B3F5906FCA62F8D100F58A604FF091
:10223000FF31302217F022BA70B40C680B884A883C
:10224000046001F1140470CC611EC66185614461B3
:102250008380C2801B2929D8DFE811F021011B01EE
:1022600015010F010901FC00EF00E100DA00CC00CC
:10227000BE00B700A900A2009B008D008600780078
:10228000690063005D004F0042003C0036003000F2
:102290002A001C0092B2551C941C1921013A03819A
:1022A000838103824581C4814282816170BC704711
:1022B00092B2551C941C1C21013AF0E792B2551CB5
:1022C000941C1B21013AEAE792B2551C941C1A2176
:1022D000013AE4E792B2551C941C1721013ADEE75B
:1022E0009BB25D1C9C1C1821013B4281C281428231
:1022F0000581848103828161D8E7541C591CA4B2F2
:1023000089B21525C481448285614281838101811E
:10231000018270BC7047541C591CA4B289B21625A6
:10232000F0E7541C591CA4B289B20125EAE79BB21C
:10233000591E551E89B201331024458284614281A1
:10234000C28181810182038170BC704792B2511CAD
:102350005D1E89B2013A1324038183810582C18104
:10236000418242818461A1E79BB2591C551C89B20C
:10237000013B1224E1E792B2511E5D1C89B2013289
:10238000112403818381058241814182C28184615C
:102390008CE79BB2591E551C89B201330C24CCE743
:1023A00092B2511C5D1C89B2013A0F24D4E79BB252
:1023B000591C89B2551E013B0E244281C2814582BF
:1023C000018101828381846170E792B2511E5D1E9A
:1023D00089B201320D24D4E794B2591E661C89B229
:1023E000013C0825038181810182C28146814482AA
:1023F00085615BE79CB2511E89B2661C0925013CD0
:102400000381C281418141828681048285614DE7D9
:1024100094B2591E661E89B201340A25E2E79CB2C5
:10242000511E89B2661E0B2501344281C181418251
:10243000838106810482856138E791B24D1C5E1E5E
:102440000139042403818381068242824581C1814E
:1024500084612BE799B24D1C561C01390724428137
:10246000C281468203820581818184611EE791B227
:102470004D1C5E1C01390624E4E799B24D1C561E22
:1024800001390524EBE792B2551C941C0221013A54
:1024900005E79BB25D1C9C1C0321013B25E7541CF6
:1024A000591CA4B289B214252CE700BF05220123D0
:1024B00070B502804380044617F032F99A4BC21778
:1024C00083FB0013C2EBA30303EB4303A0EBC300A6
:1024D0000130606117F024F9944B0340002B34DB8A
:1024E000606922886188A28001330138E361E1805C
:1024F0001B2829D8DFE810F0280122011C01110156
:102500000B01FE00F100E300DC00CE00C000B900CA
:10251000AB00A4009D008F0088007A006C0066006C
:1025200060005300460040003A0034002E001C00BA
:1025300089B24D1C881C192301392281A281228273
:102540006581E0816182A36170BD013B63F003039B
:102550000133C5E789B24D1C881C1C230139ECE707
:1025600089B24D1C881C1B230139E6E789B24D1C3A
:10257000881C1A230139E0E789B24D1C881C1723F7
:102580000139DAE792B2551C901C1823013A618197
:10259000E18161822581A0812282A36170BD481CF6
:1025A000531C80B29BB215256181E0816082A281BB
:1025B00023812382A56170BD481C531C80B29BB24D
:1025C0001625F1E7481C531C80B29BB20125EBE7AE
:1025D00092B2531E4D1E9BB2013210206181E181E7
:1025E0006582A38123822281A06170BD89B24B1CC8
:1025F000551E9BB2013913202281A2812582E381DD
:1026000063826181A06170BD92B2531C4D1C9BB26C
:10261000013A1220E2E789B24B1E551C9BB20131F0
:1026200011202281A281258263816382E181A061E0
:1026300070BD92B2531E4D1C9BB201320C20CDE7EF
:1026400089B24B1C551C9BB201390F20D4E792B2C2
:10265000531C9BB24D1E013A0E206181E1816582BF
:1026600023812382A281A06170BD89B24B1E551EB9
:102670009BB201310D20D4E788B2531E461C9BB299
:10268000013808252281A3812382E181668160824D
:10269000A56170BD90B24B1E9BB2461C0925013846
:1026A0002281E18163816382A6812082A56170BD60
:1026B00088B2531E461E9BB201300A25E2E790B253
:1026C0004B1E9BB2461E0B2501306181E381638264
:1026D000A28126812082A56170BD8BB25D1C561E31
:1026E000013B04202281A281268261826581E381EF
:1026F000A06170BD93B25D1C4E1C013B072061813F
:10270000E181668222822581A381A06170BD8BB2A6
:102710005D1C561C013B0620E4E793B25D1C4E1E77
:10272000013B0520EBE700BFABAAAA2A030000800B
:1027300089B24D1C881C02230139FEE692B2551C59
:10274000901C0323013A22E7481C531C80B29BB221
:10275000142529E72DE9F00FDFF84CC0DFF84C9085
:102760000D4E0E4D0E4C0F4BB0F902204F69D1F8B3
:102770001CB0D0F814A0B0F90010D0F81C80C9F833
:1027800000A0CCF800803760C5F800B021601A6066
:10279000BDE8F00F704700BFE8100020840C002057
:1027A000B4100020B81000206C0A0020680A002035
:1027B0002DE9F001914B924D1E682F68914C924A81
:1027C000924BD2F800C0D4F800801C68C0F8148086
:1027D000BBB2B2B2C0F81CC0038042808C4D4C61C9
:1027E000D0F814C02D68CD610CF1FF358380C28014
:1027F0001B2D2AD8DFE815F052024D024802420292
:102800003C021C002E021F0218020902FA01F40108
:10281000E701E101DB01CE01C801BB01AE01A80166
:10282000A2019501890184017F017A017501690185
:10283000013603F1010C5F1E072546824281C281E9
:102840000382A0F808C0878185610B684B60013C5A
:102850000B884A881B2C29D8DFE814F031012B01A2
:1028600025011F0119010C01FF00F100EA00DC0045
:10287000C100BA00AC00A5009E00900089007B005A
:102880006B0065005F00500043003D0037003100E1
:102890002B001C0092B2551C941C1920013A0B818C
:1028A0008B810B824D81CC814A828861BDE8F00129
:1028B000704792B2551C941C1C20013AEFE792B26B
:1028C000551C941C1B20013AE9E792B2551C941C3C
:1028D0001A20013AE3E792B2551C941C1720013AE2
:1028E000DDE79BB25D1C9C1C1820013B4A81CA811C
:1028F0004A820D818C810B828861D7E7541C581C59
:10290000A4B280B21525CC814C828D614A818B8125
:1029100008810882BDE8F0017047541C581CA4B21D
:1029200080B21625EFE7541C581CA4B280B20125D2
:10293000E9E79BB2581E551E80B2013310244D8228
:102940008C614A81CA81888108820B81BDE8F001CF
:10295000704792B2501C5D1E80B2013A13240B8165
:102960008B810D82C88148824A818C619EE79BB22F
:10297000581C551C80B2013B1224E0E792B2501E55
:102980005D1C80B2013211240B818B810D82488144
:102990004882CA818C6189E79BB2581E551C80B25F
:1029A00001330C24CBE792B2501C5D1C80B2013A7B
:1029B0000F24D4E79BB2581C80B2551E013B0E2455
:1029C0004A81CA814D82088108828B818C616DE7C2
:1029D00092B2501E5D1E80B201320D24D4E794B233
:1029E000581E661C80B2013C08250B818881088234
:1029F000CA814E814C828D6158E700BFE4100020EF
:102A0000E0100020BC100020700A0020500A0020B6
:102A1000940C00209CB2501E80B2661C0925013C1B
:102A20000B81CA81488148828E810C828D613DE78D
:102A300094B2581E661E80B201340A25D5E79CB2B6
:102A4000501E80B2661E0B2501344A81C88148821F
:102A50008B810E810C828D6128E790B2451C5E1E31
:102A6000013804240B818B810E824A824D81C881FA
:102A70008C611BE798B2451C561C013807244A811B
:102A8000CA814E820B820D8188818C610EE790B2E3
:102A9000451C5E1C01380624E4E798B2451C561E0E
:102AA00001380524EBE792B2551C941C0220013A30
:102AB000F5E69BB25D1C9C1C0320013B16E7541CF1
:102AC000581CA4B280B214251DE7571C961C19256A
:102AD000013A0381838103824781C68142828561F5
:102AE000B3E6571C961C1C25013AF2E7571C961CAE
:102AF0001B25013AEDE7571C961C1A25013AE8E719
:102B0000571C961C1725013AE3E75F1C9E1C1825ED
:102B1000013B4281C28142820781868103828561B5
:102B200093E601370136BFB2B6B215250781078299
:102B3000C681468242818381856186E601370136FE
:102B4000BFB2B6B21625F1E701370136BFB2B6B251
:102B50000125EBE75D1E013EADB201331027468231
:102B60004281C28185810582038187616DE6551CA2
:102B7000013FADB2013A1326078203818381C581EB
:102B800045824281866160E65D1C0136ADB2013B43
:102B90001227E4E7551E0137ADB201321126078234
:102BA0000381838145814582C28186614DE65D1E38
:102BB0000136ADB201330C27D1E7551C0137ADB258
:102BC000013A0F26D8E75D1CADB2013E013B0E274E
:102BD00046824281C281058105828381876134E614
:102BE000551E013FADB201320D26D8E7013FBFB2FD
:102BF00002F1010C561E0825878107820381C281DC
:102C0000A0F80AC0468285611FE6013EB6B203F114
:102C1000010C5F1E0925468146820381C281A0F80E
:102C20000CC00782856110E6013FBFB202F1FF3C94
:102C3000561C0A25E0E7013EB6B203F1FF3C5F1CDB
:102C40000B25C681468242818381A0F808C0078295
:102C50008561FAE5013F02F1010C561E0425078249
:102C6000038183814282A0F80AC0C6818561ECE5B8
:102C7000013702F1010C561E0625F0E7013E03F173
:102C8000010C5F1E0525D8E5571C961C0225013A4C
:102C90001FE75F1C9E1C0325013B3AE70137013605
:102CA000BFB2B6B2142541E7426903684360013AF6
:102CB00070B4038841881B2A29D8DFE812F021016B
:102CC0001B0115010F010901FC00EF00E100DA0012
:102CD000CC00BE00B700A900A2009B008D008600BA
:102CE0007800690063005D004F0042003C00360040
:102CF00030002A001C0089B24D1C8C1C192201399D
:102D00000381838103824581C4814182826170BCD9
:102D1000704789B24D1C8C1C1C220139F0E789B226
:102D20004D1C8C1C1B220139EAE789B24D1C8C1CFE
:102D30001A220139E4E789B24D1C8C1C1722013993
:102D4000DEE79BB25D1C9C1C1822013B4181C181C6
:102D500041820581848103828261D8E74C1C5A1C20
:102D6000A4B292B21525C4814482856141818381D8
:102D70000281028270BC70474C1C5A1CA4B292B2F1
:102D80001625F0E74C1C5A1CA4B292B20125EAE7C2
:102D90009BB25A1E4D1E92B20133102445828461AB
:102DA0004181C18182810282038170BC704789B2F6
:102DB0004A1C5D1E92B2013913240381838105826E
:102DC000C281428241818461A1E79BB25A1C4D1CA1
:102DD00092B2013B1224E1E789B24A1E5D1C92B215
:102DE0000131112403818381058242814282C181A4
:102DF00084618CE79BB25A1E4D1C92B201330C24A5
:102E0000CCE789B24A1C5D1C92B201390F24D4E789
:102E10009BB25A1C92B24D1E013B0E244181C181CE
:102E20004582028102828381846170E789B24A1EF1
:102E30005D1E92B201310D24D4E78CB25A1E661C7D
:102E400092B2013C0825038182810282C1814681C0
:102E5000448285615BE79CB24A1E92B2661C0925DA
:102E6000013C0381C1814281428286810482856165
:102E70004DE78CB25A1E661E92B201340A25E2E773
:102E80009CB24A1E92B2661E0B2501344181C2815A
:102E90004282838106810482856138E78AB2551CAB
:102EA0005E1E013A042403818381068241824581AA
:102EB000C28184612BE79AB2551C4E1C013A07244B
:102EC0004181C181468203820581828184611EE73E
:102ED0008AB2551C5E1C013A0624E4E79AB2551CDE
:102EE0004E1E013A0524EBE789B24D1C8C1C0222D0
:102EF000013905E79BB25D1C9C1C0322013B25E7C1
:102F00004C1C5A1CA4B292B214252CE7B0F906202E
:102F10000346B0F9040002EB4202120101EB80000B
:102F200010B4805830BBB3F90A20B3F9084002EB63
:102F30004202120101EB8404A258C2B9B3F90E2077
:102F4000B3F90C4002EB4202120101EB8404A258D7
:102F50006AB9B3F91220B3F9103002EB4202120140
:102F600001EB83018858D0F1010038BF00205DF8E3
:102F7000044B70470020FAE701292DE9F04106884B
:102F800045886FD069D3022925D029463346446944
:102F90008380013CC1801B2C30D8DFE814F07E0018
:102FA00021008D009400A500B600BE00C600D80028
:102FB000EA00FC00050115012501350145014D011F
:102FC00055015D0165016C0173017A018101880180
:102FD0008F0196016F00731C9BB203802946D6E7D0
:102FE0009BB203F1010C9F1C0324013B4181C18171
:102FF0004182A0F808C0878103828461B0F906305D
:10300000B0F9041003EB43031B0102EB8101CB5821
:103010006BBBB0F90A30B0F9081003EB43031B0196
:1030200002EB8101CB5813BBB0F90E30B0F90C1094
:1030300003EB43031B0102EB8101CB58BBB9B0F991
:103040001230B0F9101003EB43031B0102EB8102B5
:10305000D35863B90120BDE8F081691C89B2418071
:10306000334694E7731E9BB2038029468FE70680A0
:103070004580FFF719FE0020BDE8F08189B201F11B
:10308000010C8F1C19240139038183810382A0F86C
:103090000AC0C78141828461B0E74F1C5C1CBFB28B
:1030A000A4B24FF0140C4181C7814782838104810F
:1030B0000482C0F818C0A1E789B201F1010C8F1C8D
:1030C00002240139E0E79CB204F1010C01F1FF3860
:1030D000013C05274181C181A0F812800382A0F83C
:1030E00008C08481876189E78CB204F1010C03F187
:1030F0000108013C062703818381A0F810804182EA
:10310000A0F80AC0C481876178E79CB204F1010C81
:1031100001F10108013C0727DCE78CB204F1010C46
:1031200003F1FF38013C0427E5E79FB24C1EA4B22F
:1031300007F1FF3807F1010C0B274181C48144825C
:103140008381A0F80880A0F810C0876156E78FB28D
:103150005C1E07F1FF3807F1010CA4B20A270381B6
:1031600084810482C181A0F80A80A0F812C087611E
:1031700044E79FB24C1EA4B207F1010807F1FF3CDF
:1031800009270381C18144814482A0F80C80A0F802
:1031900010C0876132E78FB25C1E07F1010807F1AA
:1031A000FF3CA4B20827DAE789B24C1E03F1FF3CCA
:1031B000A4B201310D2703818381A0F810C044819E
:1031C0004482C181876119E79BB25C1CA4B201F102
:1031D000FF3C013B0E274181C181A0F812C0048150
:1031E00004828381876109E789B24C1C03F1010CD9
:1031F000A4B201390F2703818381A0F810C0C481D4
:10320000448241818761F9E69BB25C1E01F1010CA9
:10321000A4B201330C274181C181A0F812C084817E
:10322000048203818761E9E689B24C1E03F1010C37
:10323000A4B201311127BEE79BB25C1C01F1010C65
:10324000A4B2013B1227E6E789B24C1C03F1FF3C14
:10325000A4B201391327CEE79BB25C1E01F1FF3CFB
:10326000A4B201331027D6E74F1C5C1CBFB2A4B236
:103270004FF0010C17E74F1C5C1CBFB2A4B24FF01B
:10328000160C10E74F1C5C1CBFB2A4B24FF0150C1B
:1032900009E79BB203F1010C9F1C1824013BA5E632
:1032A00089B201F1010C8F1C17240139ECE689B2B7
:1032B00001F1010C8F1C1A240139E5E689B201F1F4
:1032C000010C8F1C1B240139DEE689B201F1010CCF
:1032D0008F1C1C240139D7E6F0B485690388428825
:1032E000466983806C1E4561C2801B2C29D8DFE8AB
:1032F00014F05C01560150014901420133012401DF
:1033000014010C01FC00EC00E500D700D000C9005E
:10331000BB00B400A600980092008C007F001C0047
:10332000790073006D0067005A009BB25F1C9D1C02
:103330001824013B4281C281428207818581038238
:103340008461B0F90630B0F9042003EB43031B019C
:1033500001EB8202D35813BBB0F90A30B0F9082050
:1033600003EB43031B0101EB8202D358BBB9B0F955
:103370000E30B0F90C2003EB43031B0101EB82027A
:10338000D35863B9B0F91230B0F9102003EB4303FE
:103390001B0101EB8201CB580BB9F0BC70474661B1
:1033A000F0BCFFF781BC92B2571C951C1924013A5E
:1033B0000381838103824781C58142828461C0E7A2
:1033C00092B2571C951C1C24013AF1E792B2571C8B
:1033D000951C1B24013AEBE792B2571C951C1A244A
:1033E000013AE5E792B2571C951C1724013ADFE732
:1033F000551C5C1CADB2A4B215274281C581458223
:1034000083810481048287619BE7551C5C1CADB2FB
:10341000A4B21627F1E7551C5C1CADB2A4B201277B
:10342000EBE79BB25C1E571EA4B20133102542810C
:10343000C2814782848104820381856181E792B2DF
:10344000541C5F1EA4B2013A1325038183810782B5
:10345000C48144824281856173E79BB25C1C571C26
:10346000A4B2013B1225E2E792B2541E5F1CA4B243
:103470000132112503818381078244814482C28104
:1034800085615EE79BB25C1E571CA4B201330C251C
:10349000CDE792B2541C5F1CA4B2013A0F25D4E7C9
:1034A0009BB25C1CA4B2571E013B0E254281C28117
:1034B0004782048104828381856142E792B2541E6F
:1034C0005F1EA4B201320D25D4E795B25C1E05F152
:1034D000010CA4B2013D0827038184810482C281CA
:1034E000A0F80AC0458287612BE79DB2541EA4B2A2
:1034F00005F1010C0927013D0381C2814481448209
:10350000A0F80CC0058287611BE795B25C1E05F12F
:10351000FF3CA4B201350A27DEE79DB2541EA4B2D7
:1035200005F1FF3C0B2701354281C4814482838130
:10353000A0F808C00582876103E794B2671C03F115
:10354000FF3C013C042503818381A0F810C0428226
:103550004781C4818561F4E69CB2671C02F1010CCD
:10356000013C07254281C281A0F812C00382078175
:1035700084818561E5E694B2671C03F1010C013C8E
:103580000625E0E79CB2671C02F1FF3C013C0525E3
:10359000E8E792B2571C951C0224013A08E79BB257
:1035A0005F1C9D1C0324013BC4E6551C5C1CADB292
:1035B000A4B2142721E700BF70B51548154D9CB083
:1035C0000FF05EFF144B15491A68044603A816F065
:1035D000E9F84FF6FF7600212868009403AB0A460D
:1035E000019612F067FF0E4B0E491A6803A816F0F9
:1035F000D9F803AB28688DE8500000210A2212F0A8
:1036000059FF094B1A6801321A601CB070BD00BF27
:1036100014E10108943F01208C0C002024E10108F2
:10362000740A00202CE10108C01000202DE9F047A9
:10363000A348A44DA44FB4B00FF022FF0646A34800
:103640000FF01EFF0446A2480FF01AFF0021824629
:10365000286810F067FA9F4B002118684FF0FF327E
:103660000B4604F0DFF99C4B2A68009493E80300B2
:103670004FF6FF790C0C0290ADF80C10104602AB1F
:103680002D211922CDF804908DF80E4012F012FF72
:103690000FCF02AC00960FC497E8030044F8040B68
:1036A000CDF8049021708D4C286802AB55216E2214
:1036B00012F000FF0FCC02AF00960FC72368CDF8C1
:1036C000049028683B60552102AB8C2212F0F2FE78
:1036D000834B84491A6802A816F064F8286802AB84
:1036E0005A21AA228DE8400212F0E4FE4FF6E07360
:1036F00028680093442176220A2310F029FE7A4B91
:1037000028681C68CDF800A04FF00008270C02AB19
:10371000CDF8048040216E22ADF808408DF80A7083
:1037200012F0C8FE4FF47843286800934421942295
:103730000A2310F00DFE6D4B28681C68CDF804803C
:10374000270C02AB40218C22CDF800A0ADF8084038
:103750008DF80A7012F0AEFE1F23286800933A21FC
:10376000B2220A2310F0F4FD614B28681C68CDF8E2
:103770000480270C02AB3621AA22CDF800A0ADF8B8
:1037800008408DF80A7012F095FE4FF480632868A7
:1037900000934FF48171B2220A2310F0D9FD554BEA
:1037A00028681C68ADF80840270C534CCDF80480FD
:1037B00002ABFE21AA22CDF800A08DF80A7012F00B
:1037C00079FE0FCC02AF00960FC794E80F0007C731
:1037D00048F210423B702868019202AB1E21D222AF
:1037E00012F068FE44464FF02A0827B22868009677
:1037F0003A46002102ABCDF80490ADF808800534BC
:1038000012F058FE286800963A46CDF8049040F22F
:103810003B1102ABADF8088012F04CFEF52CE4D160
:1038200000244FF02A094FF6FF7827B2394628685E
:103830000096002202ABCDF80480ADF8089012F09B
:1038400039FE394602AB28680096CDF80480EB2299
:103850000534ADF8089012F02DFE40F245139C425D
:10386000DFF860A04FF6FF77DFD124480FF008FEA5
:10387000234B24491A6804461BA815F093FF002126
:10388000DAF8000000941BAB0A46019712F012FE12
:103890001D4B1E491A681BA815F084FFDAF80000BA
:1038A00000941BAB002101970A2212F003FE184B73
:1038B0001A6801321A6003F0C1FB34B0BDE8F0872A
:1038C00080E00108943F012034E101088CE0010808
:1038D00098E00108880C0020C4E001084CE10108D0
:1038E000AC100020CCE00108E4E00108E8E00108A9
:1038F000ECE00108F0E00108F4E0010814E101083F
:103900008C0C002024E10108740A00202CE101083D
:10391000C01000202DE9F04F0646B9B029482A4CC6
:103920000FF0AEFD049029480FF0AAFD00210546D6
:10393000206810F0F7F8264B002118684FF0FF328E
:103940000B4604F06FF806F1900B4FF00D096FF085
:10395000070805950AE008F1010809F10B09B8F11B
:103960000C0F1FFA89F90BF1300B35D009F1010A60
:10397000B8F1040F1FFA8AFA1FFA89F7EBD93FB2A0
:103980005E461D2556F8040F29B23A460923A0B910
:103990001048B0F800E0CDF804E00093206810F083
:1039A000D7F848F21042691C08230192206800935E
:1039B00009B20FFA8AF210F07DFF0B35ADB28B2DF4
:1039C000E0D1C8E760E10108943F012080E00108F0
:1039D000880C002014000020BD4B0499009193E84E
:1039E0000300226806904FF4784610468DF81C10AC
:1039F00006AB019630216622059DDFF80483DFF8CF
:103A0000049312F057FDB34B2268019693E803002C
:103A1000049B009306908DF81C1006AB10463021D5
:103A2000842212F047FDD8F80020D9F80030AA49C6
:103A3000AA4E06910132012BC8F8002000F0CF8178
:103A4000306800954FF6FF730193B421322206AB24
:103A500012F030FDA24BD9F8002093E80300022AAF
:103A600006908DF81C1000F0AD81206800954FF68F
:103A7000FF730193B4215A2206AB12F01BFD994B40
:103A8000D9F8002093E80300032A06908DF81C1053
:103A900000F08B81206800954FF6FF73924F0193E1
:103AA000B421822206AB12F005FD0FCF0DF1180AEA
:103AB0000095AAE80F0097E8030026684FF6FF7B01
:103AC0008AE8030050223046B42106ABCDF804B09A
:103AD000A7F1100612F0EEFC0FCE06AE0FC697E867
:103AE000030023688DE8200878228AE80300A7F104
:103AF00010061846B42106AB12F0DCFC0FCE06AE61
:103B00000FC697E8030023688DE82008A0228AE802
:103B10000300A7F110061846B42106AB12F0CAFC48
:103B20000FCE06AE0FC697E8030023688DE8200885
:103B300023228AE803001846B42106AB12F0BAFC2F
:103B400000264FF02A0A37B2206800953A46002135
:103B500006ABCDF804B0ADF818A0053612F0AAFCFB
:103B6000206800953A46CDF804B040F23B1106AB10
:103B7000ADF818A012F09EFCF52EE4D100264FF00F
:103B80002A0B4FF6FF7A37B220680095394600229B
:103B900006ABCDF804A0ADF818B012F08BFC06AB64
:103BA000206800953946CDF804A0EB220536ADF823
:103BB00018B012F07FFC40F245139E42E3D1142668
:103BC0004FF02A0A4FF6FF7732B206AB2068ADF805
:103BD00018A08DE8A0009E21053612F06BFCE12EA6
:103BE000DFF8F8B04FF6FF73EED1404E40497268EF
:103BF000039306A815F0D6FDD9F80020039B012AEF
:103C000000F0C580DBF8000000950193F02106ABC1
:103C1000412212F04FFC06A83549B26815F0C2FDEA
:103C2000D9F80030022B00F0A580206800954FF6EF
:103C3000FF730193F02106AB692212F03BFCF2689E
:103C40002B4906A815F0AEFDD9F80030032B00F083
:103C50008480206800954FF6FF730193F02106AB36
:103C6000912212F027FC234B2268009593E8030071
:103C70004FF6FF7606908DF81C10104606AB0196A5
:103C8000B421142212F016FC1B4B2268009593E815
:103C900003004FF4FC674FEA114E0690ADF81C107C
:103CA000104606AB0197B421AA228DF81EE012F04F
:103CB00001FC124B0E491A6806A815F073FD06ABFD
:103CC00020688DE8A000F021B92212F0F3FB1BE080
:103CD0006CE1010874E1010831737400943F012024
:103CE0007CE1010884E101088CE10108540A00200C
:103CF00028E10108A4E10108ACE10108E80900207D
:103D0000A81000207400002049480FF0B9FB494B6F
:103D100049491A6805461FA815F044FD002120688E
:103D200000951FAB0A46019612F0C4FB434B444971
:103D30001A681FA815F036FD20681FAB00218DE81A
:103D400060000A2212F0B6FB3E4B1A6801321A607C
:103D500003F074F939B0BDE8F08FD8F800203A4B81
:103D600000951340002B2068384A43DB013332F8BA
:103D7000133072E7D8F80020334B00951340002B26
:103D80002068324A4FDB013332F8133051E7D8F85C
:103D900000202D4BDBF8000000951340002B2B4A30
:103DA0003CDB013332F813302FE7D8F80020264BE4
:103DB00000951340002B2068244A2ADB013332F897
:103DC00013306BE6D8F800201F4B00951340002BF2
:103DD00020681E4A18DB013332F8133049E61A4BCB
:103DE000306800951340002B184A08DB013332F885
:103DF000133029E6013B63F003030133B6E7013BCF
:103E000063F003030133F1E7013B63F00303013384
:103E1000E1E7013B63F003030133CFE7013B63F0CC
:103E200003030133BDE7013B63F003030133AAE75A
:103E300014E101088C0C002024E10108740A002020
:103E40002CE10108C01000200300008014000020B5
:103E50002DE9F04F8346B7B01148124D0FF010FB1B
:103E6000064611480FF00CFB0021029028680FF065
:103E700059FE0E4B002118684FF0FF320B4603F03D
:103E8000D1FD0BF1900A0D27039607F101091FFAE6
:103E900089F9D3461D240FFA87F809260CE000BFE4
:103EA00080E00108943F012098E00108880C002080
:103EB0000B34A4B28B2C1DD05BF8043F002BF7D140
:103EC000C34A28681388019321B242460923009609
:103ED0000FF03EFE611C082348F210420B340192A1
:103EE0002868009309B20FFA89F2A4B210F0E2FC3C
:103EF0008B2CE1D10B37BFB2E92F0AF1300AC4D1C4
:103F00004FF01E094FF4784A4FF6FF782868CDF835
:103F100004A049464A466923CDF80090039EDFF885
:103F2000D0B20FF015FE2868CDF8009049464A46F9
:103F30006923CDF8048010F0BDFCA64BCDF80480B9
:103F40000FCB04AC274607C72868009623213B8087
:103F50002822234612F0AEFA9F4B2A68CDF804A01F
:103F600093E8030000960F0C0490ADF8141010466F
:103F70002346D721C8228DF8167012F09BFA2868C4
:103F80008DE8000649465A2269230FF0E1FD2868B2
:103F9000CDF8009049465A226923CDF8048010F0EC
:103FA00089FC8E4B2F68CDF804800FCB009684E8F7
:103FB0000F003846234623215F2212F07BFA4FF68A
:103FC000E0732868009331216622092310F0C0F9BC
:103FD000029B28680093422723462F215F22CDF8B9
:103FE0000480ADF8107012F065FA28688DE80006BC
:103FF0004946782269230FF0ABFD2868CDF8009080
:10400000494678226923CDF8048010F053FC744BA4
:104010002F68CDF804800FCB009684E80F00384657
:10402000234623217D2212F045FA4FF4806328684D
:10403000009331218422092310F08AF9029A28681A
:104040000092234643272F217D22CDF80480ADF82E
:10405000107012F02FFA28688DE800064946962263
:1040600069230FF075FD2868CDF800904946962227
:104070006923CDF8048010F01DFCDFF878E1CDF85D
:104080000480BEE80F0027460FC7DEF8003028681E
:10409000009649463B709B22234612F00BFA1F23E1
:1040A000286800933121A322092310F051F9029BC3
:1040B000286800934FF0440E23462F219B22CDF811
:1040C0000480ADF810E012F0F5F9464B2A68CDF8FF
:1040D000048093E8030000960490ADF81410104695
:1040E0002346B421322212F0E5F93F4B2A68CDF87D
:1040F000048093E8030000964FEA114E0490ADF857
:10410000141010462346B4215A228DF816E012F0FE
:10411000D1F9364B2A68CDF8048093E80300009665
:104120004FEA114E0490ADF8141010462346B42106
:1041300082228DF816E012F0BDF9BBE80F00A6460A
:10414000AEE80F009BE803002A688DE84001234693
:1041500087E803001046B421502212F0ABF9ABF10E
:10416000100EBEE80F00A646AEE80F009BE8030065
:104170002A688DE84001234687E803001046B421F1
:10418000782212F097F9ABF1100EBEE80F00A646A8
:10419000AEE80F009BE803002A688DE84001234643
:1041A00087E803001046B421A02212F083F9ABF196
:1041B000100EBEE80F00A646AEE80F009BE8030015
:1041C0002A688DE84001234687E8030014E000BF19
:1041D00014000020B4E10108C4E10108CCE10108A9
:1041E000DCE1010800E20108ACE1010808E2010895
:1041F0008CE10108ECE101081046B421232212F001
:1042000059F900274FF02A0A0FFA87F92868009613
:10421000CDF804804A4600212346A4F800A012F0FD
:1042200049F905370096CDF804802868A4F800A065
:104230004A4640F23B11234612F03CF9F52FE3D1F8
:1042400000274FF02A0A4FF6FF790FFA87F82868FF
:104250000096CDF80490414600222346A4F800A021
:1042600012F028F90096CDF8049023462868A4F8A7
:1042700000A04146EB2212F01DF9053740F245132C
:104280009F42E2D114274FF02A0A4FF6FF798DE8BA
:1042900040023AB22868A4F800A09E2123460537C0
:1042A00012F008F9E12FDFF858814FF6FF7BEED1CD
:1042B000444B45491A68204615F074FAD8F80000B6
:1042C000F021412223468DE8400812F0F3F83F4BDD
:1042D0003D491A68204615F065FAD8F80000F0212B
:1042E000692223468DE8400812F0E4F8384B36493D
:1042F0001A68204615F056FAD8F8000023468DE8D3
:104300004008F021912212F0D5F8324B1B68012BA6
:1043100056D0042B4DD0032B41D04FF6FF772868A1
:10432000009623460197B421142212F0C3F82A4BB9
:104330002A68019793E80300009623460490ADF89D
:1043400014101046B421AA2212F0B4F823480FF03A
:1043500097F8234B23491A6804461DA815F022FA42
:104360000021286800941DAB0A46019712F0A2F8BC
:104370001D4B1E491A681DA815F014FA28681DABBC
:1043800000218DE890000A2212F094F8184B1A6868
:1043900001321A6002F052FE37B0BDE8F08F154BC3
:1043A00093E803000B0C2060ADF814108DF8163064
:1043B000B3E7114B93E8030020608DF81410ACE7CD
:1043C0000E4BEDE7DC10002028E10108E809002091
:1043D000780A0020900C002020E2010814E1010876
:1043E0008C0C002024E10108740A00202CE1010853
:1043F000C0100020ACE0010818E2010810E201083A
:10440000943F01202DE9F04FC24D0028B5B014BFF4
:104410004FF006084FF00108A946BF480FF030F8EA
:104420000646BE480FF02CF88246BD480FF028F82B
:104430000021074628680FF075FBBA4A0021106872
:104440000B464FF0FF3203F0EDFA18F0010440F094
:104450004781DFF808B3DBF80030032B00F08F81D1
:10446000B14CDFF8B0E294E80F0002AC07C424F8C6
:10447000023BDEF8000000964FF6FF724FEA134E43
:10448000019255218C2202AB84F800E012F012F860
:10449000DBF80030042B00F06981DFF8BCE29EE815
:1044A0000F0002AC07C4286800964FF6FF72238005
:1044B0005521019202AB6E2211F0FCFF9B4A2B6842
:1044C000CDF800A092E803004FF6FF7B0C0C0290A1
:1044D000ADF80C1018462D21192202ABCDF804B00E
:1044E0008DF80E4011F0E6FF914B92491A6802A830
:1044F00015F058F928685A21AA2202AB8DE8400825
:1045000011F0D8FF4FF6E07328680093442176221B
:104510000A230FF01DFFDFF848E22868DEF80040AC
:1045200000974FF0000A4FEA144ECDF804A0402146
:104530006E2202AB8DF80AE0ADF8084011F0BAFF28
:104540004FF4784328680093442194220A230FF003
:10455000FFFE794A28681468ADF808404FEA144E07
:104560008DE8800440218C2202AB8DF80AE011F026
:10457000A1FF1F23286800933A21B2220A230FF0DB
:10458000E7FE6E4B28681C68ADF808404FEA144EF1
:104590008DE880043621AA2202AB8DF80AE011F0E2
:1045A00089FF4FF48063286800934FF48171B22231
:1045B0000A230FF0CDFEDFF8ACE12868DEF80040FA
:1045C000ADF808408DE88004270C5D4C8DF80A702A
:1045D000FE21AA2202AB11F06DFF0FCC02AF0096B4
:1045E0000FC794E80F0007C73B7048F210430193D0
:1045F00028681E21D22202AB11F05CFF54464FF016
:104600002A0A27B2286800963A46002102ABCDF864
:1046100004B0ADF808A0053411F04CFF28680096EE
:104620003A46CDF804B040F23B1102ABADF808A019
:1046300011F040FFF52CE4D100244FF02A0B4FF687
:10464000FF7A27B2394628680096002202ABCDF8DF
:1046500004A0ADF808B011F02DFF394602AB286870
:104660000096CDF804A0EB220534ADF808B011F0A7
:1046700021FF40F245139C424FF6FF77E1D13148CC
:104680000EF0FEFE304B31491A6804461BA815F0A7
:1046900089F80021D9F8000000940A461BAB019765
:1046A00011F008FFDFF8C0E02949DEF800201BA860
:1046B00015F078F8D9F8000000210A221BAB8DE82C
:1046C000900011F0F7FE234A13680133136002F0E3
:1046D000B5FCB8F1010869D0C82004F083FB9CE662
:1046E000114CDFF830E094E80F0002AC07C424F866
:1046F000023BDEF8000000964FEA134E4FF6FF72C1
:10470000019255218C2202AB84F800E011F0D2FE18
:10471000C3E600BF943F012080E001088CE001085F
:1047200098E00108880C0020A4E00108C4E001081A
:10473000AC100020CCE00108E8E00108ECE0010842
:10474000F4E0010814E101088C0C002024E10108C8
:104750002CE10108C0100020B4E00108900C0020FA
:10476000E4E00108F0E00108740A0020114C94E82C
:104770000F0002AC07C428680096002297E6DFF815
:104780003CE09EE80F000DF1080EAEE807000A4A73
:104790002EF8023B106801941C0C009655218C22C7
:1047A00002AB8EF8004011F085FE71E635B0BDE831
:1047B000F08F00BFB4E00108943F0120A4E001089D
:1047C0002DE9F04FBBB00C4606902F482F4DDFF877
:1047D000C4B00EF055FE0021804628680FF0A2F903
:1047E0002B4B002118684FF0FF320B4690340D27F9
:1047F000059403F017F90497CDF81C80049FDDF8A9
:1048000014A007F101093FB20FFA89F91E261D24F1
:104810004FF0080803971AE0BBF800302868092217
:104820008DE80C00039A09230FF092F948F2104327
:1048300028680193CDF8008031B24A46082310F071
:1048400039F80B34A4B20B368B2CB6B224D05AF8FC
:10485000040F039A21B209230028DDD03BF810E0B1
:10486000CDF804E00927009728680FF071F94FF69A
:10487000FF7228680192CDF8008031B24A460823C1
:1048800010F018F8DDE700BF80E00108943F012038
:10489000880C002014000020049F07F10B03059FE3
:1048A0009BB23037E92B04930597A7D1C54B2A68F3
:1048B000DDF81C80CDF8008093E803004FF6FF7709
:1048C0000890ADF82410104608AB0197B4213222AD
:1048D00011F0F0FDBC4B2A68019793E80300CDF876
:1048E00000800C0C0890ADF82410104608ABB421E1
:1048F0005A228DF8264011F0DDFDB44B2A68B44CE5
:10490000019793E80300CDF800800E0C0890ADF8F5
:104910002410104608ABB42182228DF8266011F0D5
:10492000C9FD0FCC08AE0FC694E803002A680197B2
:10493000CDF8008008AB86E803001046B421502271
:1049400011F0B8FDA4F1100EBEE80F000DF1200E1D
:10495000AEE80F0094E803002A680197CDF80080C4
:1049600008AB86E803001046B421782211F0A2FDBE
:10497000A4F1100EBEE80F000DF1200EAEE80F00FE
:1049800094E803002A680197CDF8008008AB86E818
:1049900003001046B421A02211F08CFDA4F1100EEA
:1049A000BEE80F000DF1200EAEE80F0094E8030002
:1049B0002A680197CDF8008008AB86E8030010460E
:1049C000B421232211F076FDB94600242A2726B20D
:1049D0002868CDF800803246002108ABCDF804905D
:1049E000ADF82070053411F065FD2868CDF8008021
:1049F0003246CDF8049040F23B1108ABADF8207080
:104A000011F058FDF52CE2D100244FF02A094FF6A1
:104A1000FF7726B22868CDF800803146002208AB27
:104A20000197ADF8209011F045FD2868CDF8008081
:104A300008AB31460197EB220534ADF8209011F018
:104A400039FD40F245139C42E3D114242A274FF646
:104A5000FF762868CDF8008022B201969E2108AB2F
:104A60000534ADF8207011F025FDE12CDFF88891B8
:104A70004FF6FF7AEDD1574B57491A6808A814F042
:104A800091FED9F80000F021412208AB8DE8000525
:104A900011F010FD514B50491A6808A814F082FE1D
:104AA000D9F80000F021692208AB8DE8000511F06B
:104AB00001FD4B4B48491A6808A814F073FED9F859
:104AC000000008AB8DE80005F021912211F0F2FC06
:104AD000444B1B68012B00F0A980042B00F0B08030
:104AE000032B00F0B4804FF6FF742868CDF80080E7
:104AF000B421142208AB019411F0DCFC3A4B2A6873
:104B0000CDF8008093E8030001940890ADF82410DC
:104B1000104608ABB421AA2211F0CCFCDDF818A095
:104B200000264FF0090808270AEB0604DAF81C10E3
:104B3000A288E3883BF811E02868CDF804E003EB95
:104B4000830C02EB820103EB4C0302EB4101BE310B
:104B500003F1BE0209B212B20923CDF800800EF0B3
:104B6000F7FFA288E3882868009702EB820103EB35
:104B7000830403EB440302EB4101BF3103F1BF02A5
:104B80004FF6FF74043609B212B2019408230FF0F5
:104B900091FE102EDFF86090C6D114480EF070FC24
:104BA000134B14491A68054621A814F0FBFD002197
:104BB000D9F80000009521AB0A46019411F07AFC67
:104BC0001CE000BF00E20108ACE1010808E20108B6
:104BD0008CE10108DC10002028E10108E809002030
:104BE000780A0020900C002020E2010814E101085E
:104BF0008C0C002024E10108943F0120154B16493C
:104C00001A6821A814F0CEFDD9F80000009521AB58
:104C1000002101940A2211F04DFC104B1A68013258
:104C20001A6002F00BFA3BB0BDE8F08F0C4B93E832
:104C300003000B0C0890ADF824108DF8263052E7D5
:104C4000084B93E8030008908DF824104BE7064BBF
:104C5000EDE700BF740A00202CE10108C01000201D
:104C600010E2010818E20108ACE001082DE9F84F54
:104C7000694E6A4B36681E60694D6A4F6A4C06463B
:104C800000234FF0050E01202B603B602360A6F847
:104C900000E070808846154614F042FD634AC31751
:104CA00082FB0012C3EBA20303EB4303A0EBC3039D
:104CB0000133736114F034FD5D4B0340002BC0F2EF
:104CC000A0800133F3613046FDF7EEFF052201239A
:104CD000A8F80020A8F8023014F022FD534AC317A8
:104CE00082FB0012C3EBA20303EB4303A0EBC3035D
:104CF0000133C8F8143014F013FD4D4B0340002B62
:104D00007ADB0133C8F81C304046FDF7CDFF494B34
:104D10001B68042B42D0DFF840A1DFF840C1464CAD
:104D20004648474A474BB6F90010D6F814B0D6F8B3
:104D30001C90D8F81470B6F90260D8F81C80CAF834
:104D400000B0CCF800902760C0F8008011601E60B1
:104D50002B4618240021013C196059609960D960E4
:104D6000196159619961D961196259629962D9626F
:104D700003F13003EFD123464FF0FF32E918EA5038
:104D80003033B3F5906FCA62F8D105F58A604FF001
:104D9000FF313022BDE8F84F14F070BCCA24DFF8B0
:104DA000C090DFF8C0A0284F03E0013C2ED004F0F3
:104DB00019F83B68581C4FF00500F6D0D9F80020D0
:104DC000511CF2D0DAF80010B1F1FF3FEDD01F4FC7
:104DD0001F4C20483F6800682468F0617361378089
:104DE00074803046C8F81420C8F81C10FDF75CFF2A
:104DF0004046FDF759FFABE7013B63F00303013386
:104E00007FE7013B63F0030301335AE7D9F8002041
:104E1000DAF80010DBE700BFAC100020780A0020B1
:104E2000DC100020E8090020EC100020ABAAAA2A20
:104E300003000080900C0020E8100020840C00206B
:104E4000B4100020B8100020BC100020E01000209A
:104E5000E4100020700A0020680A00206C0A00207C
:104E6000500A0020940C00202DE9F04F5A485B4D69
:104E7000DFF894C1DFF894E1594EDFF89481594C82
:104E8000DFF89091CDB004210160574957484FF0A9
:104E9000FF3302AF0B60ADF5916D55492B600022D9
:104EA00002ADBA603360C8F80030CCF80030CEF8FC
:104EB000003002600A607A61FEF7B8FB3D610021B4
:104EC0000A460B46D9F8000002F0ACFD0028F6D0E7
:104ED000484E78693568DFF840812946FDF792F839
:104EE0007861C8F80000DFF834C1DFF834E14248E7
:104EF0004249434A7E690023CCF80030CEF80030A6
:104F000003600B601360062ED9D8DFE816F0FA01B3
:104F1000DC01DF01A6011900150007002E4A136805
:104F2000042B00F05484DFF8FCC038690023CCF86F
:104F30000030FEF7EFFCC2E73869FEF789FFBEE7F5
:104F4000BD686DBBB7F91E00D7F81080B7F9221005
:104F5000B7F91C60B7F92620B7F92A3000EB4000FA
:104F600001EB410102EB4202000108EB86060D0154
:104F70001101BA683250B7F92060B7F92400B7F9C7
:104F8000282003EB43034FEA031C08EB860608EBDB
:104F9000800008EB8202BB687351435042F80C302A
:104FA000134D2B68042B40F0A983164EB7F91A2035
:104FB00033689A4254D1DFF870E0B7F91820DEF870
:104FC00000108A4240F03385054DF86A296888420E
:104FD0004ED1C9253BE000BF74000020E81000203E
:104FE000BC100020943F0120680A0020AC10002073
:104FF000900C002000000020D0100020D4100020D1
:10500000D8100020E4100020840C0020940C002014
:10501000500A0020B010002004000020C81000201A
:10502000CC100020780A0020E0100020DFF8E8E231
:10503000B7F91820DEF800108A4240F0F884B24E2A
:10504000F96A3068814240F01287013D10D0AF4EBE
:10505000052003F0C7FEB7F91A2033689A42E5D05D
:10506000DFF8B482DFF8A0C2D8F80020DCF8001026
:10507000DFF8A8C2DFF8A8E2DFF8A882DCF8005069
:10508000D8F800603A8307F11800DEF800207B832F
:10509000F9627A657E63FD64FDF706FE07F138006C
:1050A000FDF702FE388B3A6B7D8B796BFB6AA7F8B4
:1050B000C00007F1C000C7F8D820A7F8C250C7F851
:1050C000DC10C7F8D430FDF7EFFDB7F8C260B7F8D1
:1050D000C080731C07F1C000A7F8C230FDF7E4FDE3
:1050E000B7F9C630B7F9C4203D6903EB43031B0190
:1050F00005EB8202D358002B40F0C086B7F9CA30C6
:10510000B7F9C82003EB43031B0105EB8202D35818
:10511000002B40F0B386B7F9CE30B7F9CC2003EBC3
:1051200043031B0105EB8202D358002B40F0A686F7
:10513000B7F9D230B7F9D02003EB43031B0105EBDD
:105140008202D558002D40F09986B7F926C03869FB
:10515000B7F91EA0B7F92280B7F92AE07B6BB7F93F
:105160001C10B7F92020B7F92460B7F928B00CEB70
:105170004C0C0AEB4A0A08EB48080EEB4E0E00EB0B
:105180000C1C00EB0A1A00EB0818C7F80CC000EB67
:105190000E1E4AF8213048F82230FA68396942F880
:1051A000263007F138004EF82B30FFF709FB002DB1
:1051B00000F08F82B7F91E30022B40F3A186B7F9B9
:1051C0002230022B40F39C86B7F92630022B40F3A5
:1051D0009786B7F92A30022BCCBF002301234C4D10
:1051E0004C4E2A683360042A40F00D830025A846FF
:1051F0000126D7F810A00AE0DFF828C1796BDCF8A7
:105200000020914200F09C81052003F0EBFDDFF8C7
:10521000FCC0B7F91A20DCF800309A4202D0002E08
:1052200040F02886B5F5967F00F3DD83012B05F16C
:105230000105E9D0DFF8E0C0B7F91820DCF800007C
:105240008242D9D1DFF8C0E0396BDEF8002091420C
:10525000D2D0002ED0D00126D6E7B7F91E00D7F85D
:105260001080B7F91CC0B7F92620B7F92A30B7F972
:10527000221000EB4000060102EB420203EB430365
:1052800008EB8C0C01EB410110011A0100234CF8D2
:1052900006304FEA011EB7F920C0B7F92460B7F90C
:1052A000281008EB8C0C08EB860608EB81014CF803
:1052B0000E3033508B50032D74D8DFE815F0C20048
:1052C000FE0035003D01FCF759FCF8E5DFF840E051
:1052D000DEF80030033B012B40F2D683FCF74EFC96
:1052E00007F1180007F138013A69FFF7BFFC07F131
:1052F00038003969FFF764FA4FF47A7003F072FDF1
:10530000DDE5FEF793F9DAE5BC100020E41000209B
:10531000900C0020EC100020E0100020500A00202B
:10532000940C0020700A00207D8B3E8B6B1C07F1D3
:1053300018007B83FDF7B8FCB7F91E30B7F91C20C5
:10534000D7F810C003EB43031B010CEB8202D358C8
:10535000002B40F0DD85B7F92230B7F9202003EBB0
:1053600043031B010CEB8202D358002B40F0D08585
:10537000B7F92630B7F9242003EB43031B010CEBEC
:105380008202D358002B40F0C385B7F92A30B7F911
:10539000282003EB43031B010CEB8202D358002BA4
:1053A00040F0B685DFF848C3F86ACCF80000CA4878
:1053B000FA6C0260C94A7B6D1360C94BB7F918508B
:1053C000DFF830E3796B1D60C64DCEF80010642025
:1053D000B7F91A10296003F005FDB7F91E503E69B0
:1053E000B7F91CE0B7F92200B7F926107B6BB7F9C3
:1053F0002A20D7F8108005EB450506EB8E0E2D010F
:1054000000EB400001EB41014EF805300601B7F911
:1054100020E0B7F924500801B7F9281002EB420246
:1054200008EB8101120108EB8E0E08EB85054EF8A2
:1054300006302B508B5007F138004146FFF7C0F97A
:105440003DE53B6BFD6AFB6207F11800FDF72CFCA4
:10545000B7F91E30B7F91C203E6903EB43031B016B
:1054600006EB8202D35813BBB7F92230B7F92020DC
:1054700003EB43031B0106EB8202D358BBB9B7F918
:105480002630B7F9242003EB43031B0106EB82020D
:10549000D35863B9B7F92A30B7F9282003EB43038F
:1054A0001B0106EB8202D358002B3FF47BAF07F1C0
:1054B0001800FD62FDF7F8FB74E73D8B7E8B6B1CDB
:1054C00007F118003B83FDF7EFFBB7F91E30B7F982
:1054D0001C20D7F8108003EB43031B0108EB82026A
:1054E000D35813BBB7F92230B7F9202003EB43039D
:1054F0001B0108EB8202D358BBB9B7F92630B7F9C4
:10550000242003EB43031B0108EB8202D35863B949
:10551000B7F92A30B7F9282003EB43031B0108EB46
:105520008202D358002B3FF43DAF07F118003D83B2
:105530007E83FDF7B9FB35E73D8B7E8B6B1EBFE7A6
:10554000B7F92A20B7F91E60B7F92250B7F926102B
:10555000388302EB42021001B7F91CB0B7F920E022
:10556000B7F924207B8306EB460605EB450501EBE6
:1055700041014FEA061C0B012E010AEB8B0B0AEBD3
:105580008E0EB7F928504BF80C800AEB82024EF8C9
:1055900006800AEB8505DFF860E142F80380524E91
:1055A000524BDEF800101A6845F800803368F96243
:1055B00007F11800FA647B65FDF776FB07F1380008
:1055C000FDF772FB388B3A6B7D8B796BFB6AA7F822
:1055D000C00007F1C000C7F8D820A7F8C250C7F82C
:1055E000DC10C7F8D430FDF75FFBB7F8C2B0B7F8EE
:1055F000C0500BF1010307F1C000A7F8C230FDF75E
:1056000053FBB7F9C630B7F9C42003EB43031B01C2
:105610000AEB8202D358002B40F03B84B7F9CA3022
:10562000B7F9C82003EB43031B010AEB8202D358EE
:10563000002B40F02E84B7F9CE30B7F9CC2003EB25
:1056400043031B010AEB8202D358002B40F0218454
:10565000B7F9D230B7F9D02003EB43031B010AEBB3
:105660008202D658002E40F01484B7F91E50B7F9C4
:105670001CE0B7F926107B6BB7F92200B7F92A2096
:1056800005EB45052D010AEB8E0E01EB41014EF8AD
:1056900005304FEA011CB7F920E0B7F92450B7F9FB
:1056A000281000EB400002EB4202000112010AEB5D
:1056B0008E0E0AEB85050AEB81014EF8003045F8A5
:1056C0000C3007F138008B505146FFF779F8002570
:1056D0009AE5BD60FFF7F3BBE8100020840C0020C2
:1056E000B4100020B8100020940C0020500A0020B4
:1056F000680A00206C0A0020BC1000207D8B398BCA
:10570000F9606B1C07F118007B83FDF7CDFAB7F940
:105710001EA03E69B7F91C100AEB4A0A06EB0A1AEA
:105720005AF82130002B40F0BF83B7F92280B7F937
:10573000202008EB480806EB081858F82230002B08
:1057400040F0B283B7F926C0D7F810E0B7F924606B
:105750000CEB4C0C0EEB0C1C5CF82630002B40F0D4
:10576000A3837046B7F92AE0B7F928B00EEB4E0EC6
:1057700000EB0E1E5EF82B30002B40F09583C7F82F
:105780000CC01D46DFF8C4C27B6BCCF80030DFF8DC
:10579000B8C2F86ACCF80000DFF8CCC2F86CCCF8DC
:1057A0000000B7F91800DFF8C4C27860786DCCF853
:1057B0000000B7F91A00DFF8B8C238607868CCF892
:1057C0000000DFF88CC23868CCF80000E1E49A4DA4
:1057D0009A4E2968F5683161A9420EDBB0683561DF
:1057E0008142F160C0F29E837368F0609942B160BB
:1057F000C0F29683B36071600123DFF87882C8F845
:105800000030FFF790BBB86B796D3A6DFB6CB861F7
:1058100007F1180079633A63FB62FDF745FA052248
:1058200001233A877B8713F07BFF854B83FB003294
:10583000C317C3EBA20303EB4303A0EBC303013382
:10584000FB6413F06DFF7F4B0340002BC0F25B83C2
:1058500001337D4D7D4E7B6507F13800FDF724FA5D
:10586000DFF80482FA6A7B6BDFF800C22A603360DB
:10587000FA6C7B6DDFF8F8E17548C8F80020CCF8C9
:105880000030B7F91820B7F91A30CEF800200025FB
:105890000360BD6000253B692A460321D3F89400CC
:1058A000A8B3D3F8980090B3D3F89C0078B3D3F89A
:1058B000A00060B3D3F8A40048B3D3F8A80030B375
:1058C000D3F8AC0018B3D3F8B00000B3D3F8B400E9
:1058D000E8B1D3F8B800D0B1013507F5947606EBFE
:1058E0008500C3F89420C3F89820C3F89C20C3F81F
:1058F000A020C3F8A420C3F8A820C3F8AC20C3F8A4
:10590000B020C3F8B420C3F8B82040F8681C0131B7
:10591000172903F13003C1D1002D3FF4D0AA4D4E19
:10592000DFF814813268DFF850C1DFF850E1D8F8B1
:105930000010DCF80030681E02EB80002B445EF89B
:105940002000CCF800300144032AC8F8001006DC1F
:105950004148026803EBD37302EB6302326039699A
:1059600007F13800FEF72CFF05F1010E07F1C00129
:10597000D7F810C001EB8E0E00265EF8042D3244DD
:10598000022A26DD02EB42030CEB031353F82C1C16
:1059900053F8280C5960986053F8241C53F8200CD5
:1059A000D960186153F81C1C53F8180C59619861A0
:1059B00053F8141C53F8100CD961013A53F80C1C1D
:1059C0001862022A53F8080C59629862A3F1300356
:1059D000DCD10136AE42D0D107F138003969FEF78B
:1059E000EFFEFFF76CBA0125BD60DFF89480DFF8A9
:1059F00074C0D8F80010DFF88CE0398317481849D4
:105A0000DCF800207B83DEF80030FA627B630268FA
:105A10000B68FA6407F118007B65FDF745F907F19B
:105A20003800FDF741F9002E3FF449AA32E70D484E
:105A30000A460168FFF71CBBE8090020540A002051
:105A4000ABAAAA2A03000080680A00206C0A002082
:105A5000B8100020780A0020AC100020500A002066
:105A6000940C0020BC100020E8100020840C0020C2
:105A7000B410002074000020DC1000202C00002056
:105A8000E0100020700A00200625FD60D4480DF0CB
:105A9000F7FC0646D3480DF0F3FC8346D2480DF0E0
:105AA000EFFC0021804620680EF03CF8DFF86CC364
:105AB00000210B46DCF800004FF0FF3201F0B2FF8E
:105AC000FD6815F0010E40F06F81DFF854C3DCF87B
:105AD0000030032B00F0BA81DFF838C3DFF824E38D
